{
  "_format": "hh-sol-artifact-1",
  "contractName": "Institution",
  "sourceName": "contracts/Institution.sol",
  "abi": [
    {
      "anonymous": false,
      "inputs": [
        {
          "indexed": false,
          "internalType": "string",
          "name": "name",
          "type": "string"
        },
        {
          "indexed": false,
          "internalType": "string",
          "name": "email",
          "type": "string"
        },
        {
          "indexed": false,
          "internalType": "address",
          "name": "addr",
          "type": "address"
        }
      ],
      "name": "InstitutionRegistered",
      "type": "event"
    },
    {
      "inputs": [
        {
          "internalType": "address",
          "name": "",
          "type": "address"
        }
      ],
      "name": "institutions",
      "outputs": [
        {
          "internalType": "string",
          "name": "name",
          "type": "string"
        },
        {
          "internalType": "string",
          "name": "email",
          "type": "string"
        },
        {
          "internalType": "address",
          "name": "addr",
          "type": "address"
        }
      ],
      "stateMutability": "view",
      "type": "function"
    },
    {
      "inputs": [
        {
          "internalType": "address",
          "name": "_addr",
          "type": "address"
        }
      ],
      "name": "isInstitutionExists",
      "outputs": [
        {
          "internalType": "bool",
          "name": "",
          "type": "bool"
        }
      ],
      "stateMutability": "view",
      "type": "function"
    },
    {
      "inputs": [
        {
          "internalType": "string",
          "name": "_name",
          "type": "string"
        },
        {
          "internalType": "string",
          "name": "_email",
          "type": "string"
        }
      ],
      "name": "register",
      "outputs": [],
      "stateMutability": "nonpayable",
      "type": "function"
    }
  ],
  "bytecode": "0x608060405234801561001057600080fd5b50610b28806100206000396000f3fe608060405234801561001057600080fd5b50600436106100415760003560e01c80633ffbd47f146100465780637690fc6b14610062578063b2d9767f14610092575b600080fd5b610060600480360381019061005b9190610592565b6100c4565b005b61007c60048036038101906100779190610668565b610288565b60405161008991906106b0565b60405180910390f35b6100ac60048036038101906100a79190610668565b6102de565b6040516100bb93929190610759565b60405180910390f35b6100cd33610288565b1561010d576040517f08c379a0000000000000000000000000000000000000000000000000000000008152600401610104906107ea565b60405180910390fd5b60405180606001604052808381526020018281526020013373ffffffffffffffffffffffffffffffffffffffff168152506000803373ffffffffffffffffffffffffffffffffffffffff1673ffffffffffffffffffffffffffffffffffffffff16815260200190815260200160002060008201518160000190816101919190610a20565b5060208201518160010190816101a79190610a20565b5060408201518160020160006101000a81548173ffffffffffffffffffffffffffffffffffffffff021916908373ffffffffffffffffffffffffffffffffffffffff16021790555090505060018060003373ffffffffffffffffffffffffffffffffffffffff1673ffffffffffffffffffffffffffffffffffffffff16815260200190815260200160002060006101000a81548160ff0219169083151502179055507f88a892e79612a5c836f65206271b3b487dd4561ffbde49edda37913ef684d5f882823360405161027c93929190610759565b60405180910390a15050565b6000600160008373ffffffffffffffffffffffffffffffffffffffff1673ffffffffffffffffffffffffffffffffffffffff16815260200190815260200160002060009054906101000a900460ff169050919050565b600060205280600052604060002060009150905080600001805461030190610839565b80601f016020809104026020016040519081016040528092919081815260200182805461032d90610839565b801561037a5780601f1061034f5761010080835404028352916020019161037a565b820191906000526020600020905b81548152906001019060200180831161035d57829003601f168201915b50505050509080600101805461038f90610839565b80601f01602080910402602001604051908101604052809291908181526020018280546103bb90610839565b80156104085780601f106103dd57610100808354040283529160200191610408565b820191906000526020600020905b8154815290600101906020018083116103eb57829003601f168201915b5050505050908060020160009054906101000a900473ffffffffffffffffffffffffffffffffffffffff16905083565b6000604051905090565b600080fd5b600080fd5b600080fd5b600080fd5b6000601f19601f8301169050919050565b7f4e487b7100000000000000000000000000000000000000000000000000000000600052604160045260246000fd5b61049f82610456565b810181811067ffffffffffffffff821117156104be576104bd610467565b5b80604052505050565b60006104d1610438565b90506104dd8282610496565b919050565b600067ffffffffffffffff8211156104fd576104fc610467565b5b61050682610456565b9050602081019050919050565b82818337600083830152505050565b6000610535610530846104e2565b6104c7565b90508281526020810184848401111561055157610550610451565b5b61055c848285610513565b509392505050565b600082601f8301126105795761057861044c565b5b8135610589848260208601610522565b91505092915050565b600080604083850312156105a9576105a8610442565b5b600083013567ffffffffffffffff8111156105c7576105c6610447565b5b6105d385828601610564565b925050602083013567ffffffffffffffff8111156105f4576105f3610447565b5b61060085828601610564565b9150509250929050565b600073ffffffffffffffffffffffffffffffffffffffff82169050919050565b60006106358261060a565b9050919050565b6106458161062a565b811461065057600080fd5b50565b6000813590506106628161063c565b92915050565b60006020828403121561067e5761067d610442565b5b600061068c84828501610653565b91505092915050565b60008115159050919050565b6106aa81610695565b82525050565b60006020820190506106c560008301846106a1565b92915050565b600081519050919050565b600082825260208201905092915050565b60005b838110156107055780820151818401526020810190506106ea565b60008484015250505050565b600061071c826106cb565b61072681856106d6565b93506107368185602086016106e7565b61073f81610456565b840191505092915050565b6107538161062a565b82525050565b600060608201905081810360008301526107738186610711565b905081810360208301526107878185610711565b9050610796604083018461074a565b949350505050565b7f496e737469747574696f6e20616c726561647920657869737473000000000000600082015250565b60006107d4601a836106d6565b91506107df8261079e565b602082019050919050565b60006020820190508181036000830152610803816107c7565b9050919050565b7f4e487b7100000000000000000000000000000000000000000000000000000000600052602260045260246000fd5b6000600282049050600182168061085157607f821691505b6020821081036108645761086361080a565b5b50919050565b60008190508160005260206000209050919050565b60006020601f8301049050919050565b600082821b905092915050565b6000600883026108cc7fffffffffffffffffffffffffffffffffffffffffffffffffffffffffffffffff8261088f565b6108d6868361088f565b95508019841693508086168417925050509392505050565b6000819050919050565b6000819050919050565b600061091d610918610913846108ee565b6108f8565b6108ee565b9050919050565b6000819050919050565b61093783610902565b61094b61094382610924565b84845461089c565b825550505050565b600090565b610960610953565b61096b81848461092e565b505050565b5b8181101561098f57610984600082610958565b600181019050610971565b5050565b601f8211156109d4576109a58161086a565b6109ae8461087f565b810160208510156109bd578190505b6109d16109c98561087f565b830182610970565b50505b505050565b600082821c905092915050565b60006109f7600019846008026109d9565b1980831691505092915050565b6000610a1083836109e6565b9150826002028217905092915050565b610a29826106cb565b67ffffffffffffffff811115610a4257610a41610467565b5b610a4c8254610839565b610a57828285610993565b600060209050601f831160018114610a8a5760008415610a78578287015190505b610a828582610a04565b865550610aea565b601f198416610a988661086a565b60005b82811015610ac057848901518255600182019150602085019450602081019050610a9b565b86831015610add5784890151610ad9601f8916826109e6565b8355505b6001600288020188555050505b50505050505056fea264697066735822122097553ef2ba4adf623092c67a9adc5f0f99f2d1fe4bbee42734d52385d8cca09f64736f6c63430008180033",
  "linkReferences": {},
  "deployedLinkReferences": {}
}