{
  "_format": "hh-sol-artifact-1",
  "contractName": "Receiver",
  "sourceName": "contracts/Receiver.sol",
  "abi": [
    {
      "anonymous": false,
      "inputs": [
        {
          "indexed": false,
          "internalType": "string",
          "name": "name",
          "type": "string"
        },
        {
          "indexed": false,
          "internalType": "string",
          "name": "email",
          "type": "string"
        },
        {
          "indexed": false,
          "internalType": "address",
          "name": "addr",
          "type": "address"
        }
      ],
      "name": "IReceiverRegistered",
      "type": "event"
    },
    {
      "inputs": [
        {
          "internalType": "address",
          "name": "_addr",
          "type": "address"
        }
      ],
      "name": "isReceiverExist",
      "outputs": [
        {
          "internalType": "bool",
          "name": "",
          "type": "bool"
        }
      ],
      "stateMutability": "view",
      "type": "function"
    },
    {
      "inputs": [
        {
          "internalType": "address",
          "name": "",
          "type": "address"
        }
      ],
      "name": "receivers",
      "outputs": [
        {
          "internalType": "string",
          "name": "name",
          "type": "string"
        },
        {
          "internalType": "string",
          "name": "email",
          "type": "string"
        },
        {
          "internalType": "address",
          "name": "addr",
          "type": "address"
        }
      ],
      "stateMutability": "view",
      "type": "function"
    },
    {
      "inputs": [
        {
          "internalType": "string",
          "name": "_name",
          "type": "string"
        },
        {
          "internalType": "string",
          "name": "_email",
          "type": "string"
        }
      ],
      "name": "register",
      "outputs": [],
      "stateMutability": "nonpayable",
      "type": "function"
    }
  ],
  "bytecode": "0x608060405234801561001057600080fd5b50610b28806100206000396000f3fe608060405234801561001057600080fd5b50600436106100415760003560e01c80630cb8150f146100465780633ffbd47f14610078578063f0bfc86b14610094575b600080fd5b610060600480360381019061005b91906104aa565b6100c4565b60405161006f93929190610576565b60405180910390f35b610092600480360381019061008d91906106f0565b61021e565b005b6100ae60048036038101906100a991906104aa565b6103e2565b6040516100bb9190610783565b60405180910390f35b60006020528060005260406000206000915090508060000180546100e7906107cd565b80601f0160208091040260200160405190810160405280929190818152602001828054610113906107cd565b80156101605780601f1061013557610100808354040283529160200191610160565b820191906000526020600020905b81548152906001019060200180831161014357829003601f168201915b505050505090806001018054610175906107cd565b80601f01602080910402602001604051908101604052809291908181526020018280546101a1906107cd565b80156101ee5780601f106101c3576101008083540402835291602001916101ee565b820191906000526020600020905b8154815290600101906020018083116101d157829003601f168201915b5050505050908060020160009054906101000a900473ffffffffffffffffffffffffffffffffffffffff16905083565b610227336103e2565b15610267576040517f08c379a000000000000000000000000000000000000000000000000000000000815260040161025e9061084a565b60405180910390fd5b60405180606001604052808381526020018281526020013373ffffffffffffffffffffffffffffffffffffffff168152506000803373ffffffffffffffffffffffffffffffffffffffff1673ffffffffffffffffffffffffffffffffffffffff16815260200190815260200160002060008201518160000190816102eb9190610a20565b5060208201518160010190816103019190610a20565b5060408201518160020160006101000a81548173ffffffffffffffffffffffffffffffffffffffff021916908373ffffffffffffffffffffffffffffffffffffffff16021790555090505060018060003373ffffffffffffffffffffffffffffffffffffffff1673ffffffffffffffffffffffffffffffffffffffff16815260200190815260200160002060006101000a81548160ff0219169083151502179055507f7e3195d894e4efa4fcd5fe94e2d6d57a696cafd496b922b76301ad158860a4898282336040516103d693929190610576565b60405180910390a15050565b6000600160008373ffffffffffffffffffffffffffffffffffffffff1673ffffffffffffffffffffffffffffffffffffffff16815260200190815260200160002060009054906101000a900460ff169050919050565b6000604051905090565b600080fd5b600080fd5b600073ffffffffffffffffffffffffffffffffffffffff82169050919050565b60006104778261044c565b9050919050565b6104878161046c565b811461049257600080fd5b50565b6000813590506104a48161047e565b92915050565b6000602082840312156104c0576104bf610442565b5b60006104ce84828501610495565b91505092915050565b600081519050919050565b600082825260208201905092915050565b60005b838110156105115780820151818401526020810190506104f6565b60008484015250505050565b6000601f19601f8301169050919050565b6000610539826104d7565b61054381856104e2565b93506105538185602086016104f3565b61055c8161051d565b840191505092915050565b6105708161046c565b82525050565b60006060820190508181036000830152610590818661052e565b905081810360208301526105a4818561052e565b90506105b36040830184610567565b949350505050565b600080fd5b600080fd5b7f4e487b7100000000000000000000000000000000000000000000000000000000600052604160045260246000fd5b6105fd8261051d565b810181811067ffffffffffffffff8211171561061c5761061b6105c5565b5b80604052505050565b600061062f610438565b905061063b82826105f4565b919050565b600067ffffffffffffffff82111561065b5761065a6105c5565b5b6106648261051d565b9050602081019050919050565b82818337600083830152505050565b600061069361068e84610640565b610625565b9050828152602081018484840111156106af576106ae6105c0565b5b6106ba848285610671565b509392505050565b600082601f8301126106d7576106d66105bb565b5b81356106e7848260208601610680565b91505092915050565b6000806040838503121561070757610706610442565b5b600083013567ffffffffffffffff81111561072557610724610447565b5b610731858286016106c2565b925050602083013567ffffffffffffffff81111561075257610751610447565b5b61075e858286016106c2565b9150509250929050565b60008115159050919050565b61077d81610768565b82525050565b60006020820190506107986000830184610774565b92915050565b7f4e487b7100000000000000000000000000000000000000000000000000000000600052602260045260246000fd5b600060028204905060018216806107e557607f821691505b6020821081036107f8576107f761079e565b5b50919050565b7f496e737469747574696f6e20616c726561647920657869737473000000000000600082015250565b6000610834601a836104e2565b915061083f826107fe565b602082019050919050565b6000602082019050818103600083015261086381610827565b9050919050565b60008190508160005260206000209050919050565b60006020601f8301049050919050565b600082821b905092915050565b6000600883026108cc7fffffffffffffffffffffffffffffffffffffffffffffffffffffffffffffffff8261088f565b6108d6868361088f565b95508019841693508086168417925050509392505050565b6000819050919050565b6000819050919050565b600061091d610918610913846108ee565b6108f8565b6108ee565b9050919050565b6000819050919050565b61093783610902565b61094b61094382610924565b84845461089c565b825550505050565b600090565b610960610953565b61096b81848461092e565b505050565b5b8181101561098f57610984600082610958565b600181019050610971565b5050565b601f8211156109d4576109a58161086a565b6109ae8461087f565b810160208510156109bd578190505b6109d16109c98561087f565b830182610970565b50505b505050565b600082821c905092915050565b60006109f7600019846008026109d9565b1980831691505092915050565b6000610a1083836109e6565b9150826002028217905092915050565b610a29826104d7565b67ffffffffffffffff811115610a4257610a416105c5565b5b610a4c82546107cd565b610a57828285610993565b600060209050601f831160018114610a8a5760008415610a78578287015190505b610a828582610a04565b865550610aea565b601f198416610a988661086a565b60005b82811015610ac057848901518255600182019150602085019450602081019050610a9b565b86831015610add5784890151610ad9601f8916826109e6565b8355505b6001600288020188555050505b50505050505056fea2646970667358221220b6d56d88827ed8622da3f36fb9a646a65107264ba0159ff2a31b2ec44c22113064736f6c63430008180033",
  "linkReferences": {},
  "deployedLinkReferences": {}
}