{
  "_format": "hh-sol-artifact-1",
  "contractName": "AcademicRecord",
  "sourceName": "contracts/AcademicRecord.sol",
  "abi": [
    {
      "anonymous": false,
      "inputs": [
        {
          "indexed": true,
          "internalType": "address",
          "name": "_issuerAddress",
          "type": "address"
        },
        {
          "indexed": false,
          "internalType": "bytes32",
          "name": "_txHash",
          "type": "bytes32"
        }
      ],
      "name": "RecordIssued",
      "type": "event"
    },
    {
      "inputs": [
        {
          "internalType": "bytes32",
          "name": "_txHash",
          "type": "bytes32"
        }
      ],
      "name": "AddRecord",
      "outputs": [],
      "stateMutability": "nonpayable",
      "type": "function"
    },
    {
      "inputs": [
        {
          "internalType": "bytes32",
          "name": "_addr",
          "type": "bytes32"
        }
      ],
      "name": "isRecordTxHashExist",
      "outputs": [
        {
          "internalType": "bool",
          "name": "",
          "type": "bool"
        }
      ],
      "stateMutability": "view",
      "type": "function"
    },
    {
      "inputs": [
        {
          "internalType": "bytes32",
          "name": "",
          "type": "bytes32"
        }
      ],
      "name": "records",
      "outputs": [
        {
          "internalType": "address",
          "name": "issuerAddress",
          "type": "address"
        },
        {
          "internalType": "bytes32",
          "name": "txHash",
          "type": "bytes32"
        }
      ],
      "stateMutability": "view",
      "type": "function"
    }
  ],
  "bytecode": "0x608060405234801561001057600080fd5b50610484806100206000396000f3fe608060405234801561001057600080fd5b50600436106100415760003560e01c806301e64725146100465780634ee999f214610077578063a80528c214610093575b600080fd5b610060600480360381019061005b91906102da565b6100c3565b60405161006e929190610357565b60405180910390f35b610091600480360381019061008c91906102da565b610107565b005b6100ad60048036038101906100a891906102da565b610275565b6040516100ba919061039b565b60405180910390f35b60006020528060005260406000206000915090508060000160009054906101000a900473ffffffffffffffffffffffffffffffffffffffff16908060010154905082565b6001600082815260200190815260200160002060009054906101000a900460ff1615610168576040517f08c379a000000000000000000000000000000000000000000000000000000000815260040161015f90610413565b60405180910390fd5b60405180604001604052803373ffffffffffffffffffffffffffffffffffffffff1681526020018281525060008083815260200190815260200160002060008201518160000160006101000a81548173ffffffffffffffffffffffffffffffffffffffff021916908373ffffffffffffffffffffffffffffffffffffffff16021790555060208201518160010155905050600180600083815260200190815260200160002060006101000a81548160ff0219169083151502179055503373ffffffffffffffffffffffffffffffffffffffff167fdd5806f6c3f14bd434859dc2e49e232d38c24d2e2cc82bfdc6b7d371ae3953638260405161026a9190610433565b60405180910390a250565b60006001600083815260200190815260200160002060009054906101000a900460ff169050919050565b600080fd5b6000819050919050565b6102b7816102a4565b81146102c257600080fd5b50565b6000813590506102d4816102ae565b92915050565b6000602082840312156102f0576102ef61029f565b5b60006102fe848285016102c5565b91505092915050565b600073ffffffffffffffffffffffffffffffffffffffff82169050919050565b600061033282610307565b9050919050565b61034281610327565b82525050565b610351816102a4565b82525050565b600060408201905061036c6000830185610339565b6103796020830184610348565b9392505050565b60008115159050919050565b61039581610380565b82525050565b60006020820190506103b0600083018461038c565b92915050565b600082825260208201905092915050565b7f5265636f726420416c7265616479206578697374000000000000000000000000600082015250565b60006103fd6014836103b6565b9150610408826103c7565b602082019050919050565b6000602082019050818103600083015261042c816103f0565b9050919050565b60006020820190506104486000830184610348565b9291505056fea26469706673582212200c625e20a26d7f657d2b4cc28f9c7e303d5f63529b4031b215b407aa449b8dd364736f6c63430008180033",
  "linkReferences": {},
  "deployedLinkReferences": {}
}