{
  "_format": "hh-sol-artifact-1",
  "contractName": "AcademicRecord",
  "sourceName": "contracts/AcademicRecord.sol",
  "abi": [
    {
      "anonymous": false,
      "inputs": [
        {
          "indexed": true,
          "internalType": "address",
          "name": "_issuerAddress",
          "type": "address"
        },
        {
          "indexed": false,
          "internalType": "string",
          "name": "_txHash",
          "type": "string"
        }
      ],
      "name": "RecordIssued",
      "type": "event"
    },
    {
      "inputs": [
        {
          "internalType": "string",
          "name": "_txHash",
          "type": "string"
        }
      ],
      "name": "AddRecord",
      "outputs": [],
      "stateMutability": "nonpayable",
      "type": "function"
    },
    {
      "inputs": [
        {
          "internalType": "string",
          "name": "_addr",
          "type": "string"
        }
      ],
      "name": "isRecordTxHashExist",
      "outputs": [
        {
          "internalType": "bool",
          "name": "",
          "type": "bool"
        }
      ],
      "stateMutability": "view",
      "type": "function"
    },
    {
      "inputs": [
        {
          "internalType": "string",
          "name": "",
          "type": "string"
        }
      ],
      "name": "records",
      "outputs": [
        {
          "internalType": "address",
          "name": "issuerAddress",
          "type": "address"
        },
        {
          "internalType": "string",
          "name": "txHash",
          "type": "string"
        }
      ],
      "stateMutability": "view",
      "type": "function"
    }
  ],
  "bytecode": "0x608060405234801561001057600080fd5b50610a63806100206000396000f3fe608060405234801561001057600080fd5b50600436106100415760003560e01c8063541e771d14610046578063c989740214610077578063e26140e414610093575b600080fd5b610060600480360381019061005b91906104ab565b6100c3565b60405161006e9291906105b4565b60405180910390f35b610091600480360381019061008c91906104ab565b6101a5565b005b6100ad60048036038101906100a891906104ab565b61031c565b6040516100ba91906105ff565b60405180910390f35b6000818051602081018201805184825260208301602085012081835280955050505050506000915090508060000160009054906101000a900473ffffffffffffffffffffffffffffffffffffffff169080600101805461012290610649565b80601f016020809104026020016040519081016040528092919081815260200182805461014e90610649565b801561019b5780601f106101705761010080835404028352916020019161019b565b820191906000526020600020905b81548152906001019060200180831161017e57829003601f168201915b5050505050905082565b6101ae8161031c565b156101ee576040517f08c379a00000000000000000000000000000000000000000000000000000000081526004016101e5906106c6565b60405180910390fd5b60405180604001604052803373ffffffffffffffffffffffffffffffffffffffff168152602001828152506000826040516102299190610722565b908152602001604051809103902060008201518160000160006101000a81548173ffffffffffffffffffffffffffffffffffffffff021916908373ffffffffffffffffffffffffffffffffffffffff160217905550602082015181600101908161029391906108ef565b50905050600180826040516102a89190610722565b908152602001604051809103902060006101000a81548160ff0219169083151502179055503373ffffffffffffffffffffffffffffffffffffffff167f3fcc4a9ead08cb7197701a63caa3c5be30208fe753ffff41748a2d0781ee130960405161031190610a0d565b60405180910390a250565b600060018260405161032e9190610722565b908152602001604051809103902060009054906101000a900460ff169050919050565b6000604051905090565b600080fd5b600080fd5b600080fd5b600080fd5b6000601f19601f8301169050919050565b7f4e487b7100000000000000000000000000000000000000000000000000000000600052604160045260246000fd5b6103b88261036f565b810181811067ffffffffffffffff821117156103d7576103d6610380565b5b80604052505050565b60006103ea610351565b90506103f682826103af565b919050565b600067ffffffffffffffff82111561041657610415610380565b5b61041f8261036f565b9050602081019050919050565b82818337600083830152505050565b600061044e610449846103fb565b6103e0565b90508281526020810184848401111561046a5761046961036a565b5b61047584828561042c565b509392505050565b600082601f83011261049257610491610365565b5b81356104a284826020860161043b565b91505092915050565b6000602082840312156104c1576104c061035b565b5b600082013567ffffffffffffffff8111156104df576104de610360565b5b6104eb8482850161047d565b91505092915050565b600073ffffffffffffffffffffffffffffffffffffffff82169050919050565b600061051f826104f4565b9050919050565b61052f81610514565b82525050565b600081519050919050565b600082825260208201905092915050565b60005b8381101561056f578082015181840152602081019050610554565b60008484015250505050565b600061058682610535565b6105908185610540565b93506105a0818560208601610551565b6105a98161036f565b840191505092915050565b60006040820190506105c96000830185610526565b81810360208301526105db818461057b565b90509392505050565b60008115159050919050565b6105f9816105e4565b82525050565b600060208201905061061460008301846105f0565b92915050565b7f4e487b7100000000000000000000000000000000000000000000000000000000600052602260045260246000fd5b6000600282049050600182168061066157607f821691505b6020821081036106745761067361061a565b5b50919050565b7f5265636f726420416c7265616479206578697374000000000000000000000000600082015250565b60006106b0601483610540565b91506106bb8261067a565b602082019050919050565b600060208201905081810360008301526106df816106a3565b9050919050565b600081905092915050565b60006106fc82610535565b61070681856106e6565b9350610716818560208601610551565b80840191505092915050565b600061072e82846106f1565b915081905092915050565b60008190508160005260206000209050919050565b60006020601f8301049050919050565b600082821b905092915050565b60006008830261079b7fffffffffffffffffffffffffffffffffffffffffffffffffffffffffffffffff8261075e565b6107a5868361075e565b95508019841693508086168417925050509392505050565b6000819050919050565b6000819050919050565b60006107ec6107e76107e2846107bd565b6107c7565b6107bd565b9050919050565b6000819050919050565b610806836107d1565b61081a610812826107f3565b84845461076b565b825550505050565b600090565b61082f610822565b61083a8184846107fd565b505050565b5b8181101561085e57610853600082610827565b600181019050610840565b5050565b601f8211156108a35761087481610739565b61087d8461074e565b8101602085101561088c578190505b6108a06108988561074e565b83018261083f565b50505b505050565b600082821c905092915050565b60006108c6600019846008026108a8565b1980831691505092915050565b60006108df83836108b5565b9150826002028217905092915050565b6108f882610535565b67ffffffffffffffff81111561091157610910610380565b5b61091b8254610649565b610926828285610862565b600060209050601f8311600181146109595760008415610947578287015190505b61095185826108d3565b8655506109b9565b601f19841661096786610739565b60005b8281101561098f5784890151825560018201915060208501945060208101905061096a565b868310156109ac57848901516109a8601f8916826108b5565b8355505b6001600288020188555050505b505050505050565b7f7478486173680000000000000000000000000000000000000000000000000000600082015250565b60006109f7600683610540565b9150610a02826109c1565b602082019050919050565b60006020820190508181036000830152610a26816109ea565b905091905056fea2646970667358221220c87fbb8e6014efe30a1337d3cb1aba6fefd2966aa8c9ce31b93f47386d3bc12064736f6c63430008180033",
  "linkReferences": {},
  "deployedLinkReferences": {}
}